:100000000C9462000C948A000C948A000C948A0070
:100010000C948A000C948A000C948A000C948A0038
:100020000C948A000C948A000C948A000C948A0028
:100030000C948A000C948A000C948A000C948A0018
:100040000C9490030C948A000C948A000C948A00FF
:100050000C948A000C948A000C948A000C948A00F8
:100060000C948A000C948A000000000024002700F1
:100070002A0000000000250028002B0000000000DE
:1000800023002600290004040404040404040202DA
:100090000202020203030303030301020408102007
:1000A0004080010204081020010204081020000012
:1000B0000008000201000003040700000000000027
:1000C0000000830611241FBECFEFD8E0DEBFCDBFF6
:1000D00011E0A0E0B1E0EAE4FEE002C005900D927C
:1000E000AA32B107D9F721E0AAE2B1E001C01D921E
:1000F000A43CB207E1F710E0C2E6D0E004C02197CB
:10010000FE010E941D07C136D107C9F70E94DA031C
:100110000C9423070C94000096E0899FD0011124D1
:10012000A35CBE4F90967C936E935F9791E09196FF
:100130009C939197E091AA01F091AB019091A90154
:10014000992339F0309751F0811108C080915901FD
:100150000994309719F05C968C91FACF089583300A
:1001600081F028F4813099F08230A9F00895873029
:10017000A9F08830C9F08430B1F4809180008F7D7F
:1001800003C0809180008F7780938000089584B5AC
:100190008F7784BD089584B58F7DFBCF8091B000AB
:1001A0008F778093B00008958091B0008F7DF9CF54
:1001B000CF93DF93282F30E0F901E255FF4F849170
:1001C000F901E656FF4FD491F901EA57FF4FC49168
:1001D000CC23A1F081110E94AF00EC2FF0E0EE0FD4
:1001E000FF1FE458FF4FA591B491EC91ED2381E0FE
:1001F00090E009F480E0DF91CF91089580E090E0F5
:10020000FACF1F93CF93DF93282F30E0F901E25507
:10021000FF4F8491F901E656FF4FD491F901EA5757
:10022000FF4FC491CC23A9F0162F81110E94AF007B
:10023000EC2FF0E0EE0FFF1FEE58FF4FA591B491A9
:100240008FB7F894EC91111108C0D095DE23DC93A0
:100250008FBFDF91CF911F910895DE2BF8CFCF9301
:10026000DF9390E0FC01E656FF4F24918A579F4FA1
:10027000FC0184918823C9F090E0880F991FFC014C
:10028000E859FF4FA591B491FC01EE58FF4FC5917D
:10029000D49161110DC09FB7F8948C912095822361
:1002A0008C938881282328839FBFDF91CF91089565
:1002B000623051F49FB7F8943C91822F809583234C
:1002C0008C93E8812E2BEFCF8FB7F894EC912E2BE7
:1002D0002C938FBFEACF3FB7F8948091390190916A
:1002E0003A01A0913B01B0913C0126B5A89B05C005
:1002F0002F3F19F00196A11DB11D3FBFBA2FA92FA5
:10030000982F8827BC01CD01620F711D811D911DA1
:1003100042E0660F771F881F991F4A95D1F708950D
:100320002FB7F894609135017091360180913701B3
:10033000909138012FBF08950F931F93CF93DF93B0
:10034000C82FD62F86E0C89FF0011124E35CFE4F32
:1003500011A2878D90A181309105F1F058F0823083
:100360009105F1F1039709F440C0DF91CF911F91FE
:100370000F9108956623C9F361E070E08C2F0E940D
:100380008C000E9490016093950170939601809378
:10039000970190939801E9CF0E94900100919501F7
:1003A000109196012091970130919801AB01BC0109
:1003B000401B510B620B730B8091A7019091A80118
:1003C000B0E0A0E084179507A607B70748F462E0FD
:1003D00070E08C2FDF91CF911F910F910C948C00C6
:1003E00063E070E0D111C1CFF4CF70E060E0F1CFF5
:1003F000862F642F0C942F01862F642F0C940101FB
:10040000862F0C94D800AF92BF92CF92DF92EF92DA
:10041000FF920F931F93CF93DF936C017B018B01AE
:10042000040F151FEB015E01AE18BF08C017D107FE
:1004300059F06991D601ED91FC910190F081E02D88
:10044000C6010995892B79F7C501DF91CF911F91DD
:100450000F91FF90EF90DF90CF90BF90AF900895F5
:10046000089590E080E00895CF93DF93EC0160E081
:100470008E810E94010161E08E810E94010160E095
:100480008E810E9401018BE891E00197F1F7DF91E5
:10049000CF910895CF92DF92EF92FF920F931F9327
:1004A000CF93DF936C017C0187E0E80EF11CD0E074
:1004B000C0E0062F10E0B8010C2E02C075956795BC
:1004C0000A94E2F76170F70181917F010E940101B6
:1004D0002196C430D10579F7C601DF91CF911F91E4
:1004E0000F91FF90EF90DF90CF900C943402CF9259
:1004F000DF92EF92FF920F931F93CF93DF93EC0164
:10050000F62E642F8C810E9401018D818F3F19F09E
:1005100060E00E9401010F2D10E08F8584FF25C04F
:100520006E0187E0C80ED11CF12CE12CB8010E2C15
:1005300002C0759567950A94E2F76170F6018191A2
:100540006F010E940101FFEFEF1AFF0A88E0E81631
:10055000F10461F7CE01DF91CF911F910F91FF90D0
:10056000EF90DF90CF900C943402B80184E0759541
:1005700067958A95E1F7CE010E944A026F2DCE0160
:10058000DF91CF911F910F91FF90EF90DF90CF906F
:100590000C944A0240E0682F8CEA91E00C947702B8
:1005A00081E00E94CA028BE39FE10197F1F7089571
:1005B000CF93DF9391E09093BF011092C00190E43C
:1005C0009093C1018093C201805C8093C30161E07C
:1005D0008091B0010E942F018091B1018F3F19F0ED
:1005E00061E00E942F0161E08091B2010E942F0121
:1005F000CCEAD1E09E012C5A31408091BB0184FDB0
:100600000BC084E090E021962817390744F461E09C
:100610008E810E942F01EECF88E090E0F4CF8BE333
:100620009DE00197F1F760E08091B0010E94010127
:1006300060E08091B2010E9401018091B1018F3F81
:1006400019F060E00E9401018091BB0184FD34C07B
:1006500063E08CEA91E00E944A02CBE4D6E4CE014A
:100660000197F1F763E08CEA91E00E944A0221973A
:10067000F1F763E08CEA91E00E944A0283E592E0A0
:100680000197F1F762E08CEA91E00E944A028091C2
:10069000BB0180620E94CA0284E08093BC018CE0AE
:1006A0000E94CA020E94D00282E08093BD0186E0CF
:1006B000DF91CF910C94CA0280620E94CA028BE43F
:1006C00096E40197F1F78091BB0180620E94CA0213
:1006D00083E592E00197F1F78091BB0180620E946F
:1006E000CA02D5CF10922E0110922F011092300124
:1006F000109231010E94D002E1E08091BF0181118E
:10070000E0E0E195F0E0E455FE4F84898C5F80687D
:100710000C94CA0241E00E94770281E090E00895C3
:100720001F920F920FB60F9211242F933F938F9326
:100730009F93AF93BF938091350190913601A09123
:100740003701B09138013091340123E0230F2D3768
:1007500058F50196A11DB11D2093340180933501F8
:1007600090933601A0933701B093380180913901FD
:1007700090913A01A0913B01B0913C010196A11DDD
:10078000B11D8093390190933A01A0933B01B0933E
:100790003C01BF91AF919F918F913F912F910F900D
:1007A0000FBE0F901F90189526E8230F0296A11DEB
:1007B000B11DD2CF789484B5826084BD84B5816048
:1007C00084BD85B5826085BD85B5816085BD80911C
:1007D0006E00816080936E00109281008091810094
:1007E000826080938100809181008160809381008C
:1007F000809180008160809380008091B10084604E
:100800008093B1008091B00081608093B0008091AE
:100810007A00846080937A0080917A00826080936D
:100820007A0080917A00816080937A0080917A00CA
:10083000806880937A001092C10084E00E94D80200
:100840000E94D002E1E08091BF018111E0E0E195DA
:10085000F0E0E455FE4F84898C5F80680E94CA02F4
:100860008091BD01982F91609093BD0185600E9499
:10087000CA0261E08EE00E942F0161E08DE00E94DB
:100880002F0161E089E00E942F0161E08AE00E946F
:100890002F0148EEC42E43E0D42EE12CF12C06E0CB
:1008A00050E0252E50E0352E80913301882339F118
:1008B00060E089E00E94010160E08AE00E9401019D
:1008C0000E949001A70196010E94FB06643F7140BF
:1008D0008105910570F460E08EE00E94010161E005
:1008E0008DE00E94010121143104F1F20E94000008
:1008F000DBCF61E08EE00E94010160E0F1CF10915A
:100900003201112309F43FC060E08EE00E94010132
:1009100060E08DE00E9401010E949001A701960114
:100920000E94FB06643F71408105910530F560E04F
:1009300089E00E94010161E08AE00E9401010E94B9
:10094000900180902A0190902B01A0902C01B090F2
:100950002D01681979098A099B09693B7B4081054A
:10096000910508F20E9472031092320160E089E062
:100970000E94010160E08AE0B4CF61E089E00E945A
:10098000010160E0D9CF61E08EE00E94010160E0EA
:100990008DE00E9401010E949001A70196010E9432
:1009A000FB06643F714081059105C0F560E089E078
:1009B0000E94010160E08AE00E94010181E08093D1
:1009C000A9010E9490018090990190909A01A090B5
:1009D0009B01B0909C01AB01BC01481959096A09FF
:1009E0007B098091A5019091A601B0E0A0E0841759
:1009F0009507A607B70708F030C1C0E08091A301B2
:100A0000C81790F4E0919F01F091A001EC0FF11D47
:100A100062E080810E942F01CF5FF0CF60E089E02B
:100A20000E94010161E0C7CF912C8091A40198162A
:100A300008F061C0A92CB12CE091A101F091A201B4
:100A4000EA0DFB1D61E080810E942F01E091A10170
:100A5000F091A201EA0DFB1D60E080810E9401017E
:100A600081E090E0A0E0B0E0092C04C0880F991F5D
:100A7000AA1FBB1F0A94D2F72C013C01609470940A
:100A8000812C8091A3018816F8F4C82DD0E0E09164
:100A90009F01F091A001EC0FFD1F80810E94D80002
:100AA0002496CC0FDD1FC35CDE4F892B41F4888177
:100AB000998184299529998388838394E2CF8881B9
:100AC000998186219721F7CFE091A101F091A201B0
:100AD000EA0DFB1D61E080810E9401018091A1016E
:100AE0009091A201A80EB91E60E0F50180810E94DC
:100AF0002F0193949ACFCDE3D1E0FE01878D90A191
:100B0000892B31F4148E2FEF3FEF368F258F11A2F2
:100B1000369631E0E937F30789F7B12C8091A301CC
:100B2000B81608F052C0A12C8B2D90E0880F991FA9
:100B3000FC01EB5BFE4F4F012091A401A21608F0CF
:100B400042C0F401608171810A2C02C076956795DC
:100B50000A94E2F7B29E900111242A0D311DEDE3B3
:100B6000F1E080E0458D568D2417350709F4C9C0A2
:100B70008F5F36968A30B1F760FF23C0EDE3F1E076
:100B800090E080E0448D411117C0E0919D01F0910B
:100B90009E01E20FF31F4081089FF001099FF00DB5
:100BA0001124E35CFE4F448F368F258F10A2178EE1
:100BB00061E00E949C0105C0019636968A3091053D
:100BC00009F7A394B9CFB394A9CFB12C89A181110E
:100BD000B82E2696F1E0C937DF07C1F70E949001D1
:100BE0006093990170939A0180939B0190939C016B
:100BF000BB2099F180915E01882379F180915C019D
:100C000090915D01019749F560915901611128C0EA
:100C10000E946B012B013C018AE0882E912CA12CB3
:100C2000B12C0E946B016419750986099709683E09
:100C3000734081059105A8F321E0821A9108A1086B
:100C4000B10838EE430E33E0531E611C711C811451
:100C50009104A104B10429F746CE1092A901D8CF7E
:100C600080ED860F8A3098F480912F0180932E01B9
:100C70008091300180932F01809131018093300168
:100C8000609331018CEA91E00E948A03C1CF6A32FD
:100C900019F40E947203BCCF633209F0B9CF60E04F
:100CA00089E00E94010160E08AE00E94010160E0A9
:100CB0008EE00E94010160E08DE00E9401018091C0
:100CC0002E0190912F01923321F411E0823309F02B
:100CD00010E080913001883331F4112321F081E05C
:100CE0008093330195CF81E0809332010E9490017F
:100CF00060932A0170932B0180932C0190932D0116
:100D000087CF617056CF1092AF011092AE0181E291
:100D100091E09093AD018093AC018CE08093B001A1
:100D20008FEF8093B1018BE08093B20185E08093D7
:100D3000B30184E08093B40183E08093B50182E045
:100D40008093B6011092B7011092B8011092B901C8
:100D50001092BA011092BB0180E10E94D802109259
:100D60003F0110924301109242011092440187E129
:100D700091E090933E0180933D01E9E5F1E010821E
:100D8000148213821582369681E0E539F807B9F7A7
:100D900083E091E09093A00180939F0180E091E037
:100DA0009093A2018093A10184E08093A30183E04A
:100DB0008093A40187E091E090939E0180939D0130
:100DC0008AE090E09093A6018093A50184EF91E0E2
:100DD0009093A8018093A7011092AB011092AA01F1
:100DE0001092990110929A0110929B0110929C010D
:100DF0001092A9010895A1E21A2EAA1BBB1BFD01A6
:100E00000DC0AA1FBB1FEE1FFF1FA217B307E407E9
:100E1000F50720F0A21BB30BE40BF50B661F771F41
:100E2000881F991F1A9469F7609570958095909521
:100E30009B01AC01BD01CF010895EE0FFF1F05908E
:0A0E4000F491E02D0994F894FFCF1F
:100E4A000607080F10111231323334353637383964
:100E5A002A302300000000F801FC01000200000013
:0A0E6A00008A030302310230020087
:00000001FF
